S0190000616464726573735F6D61705F6E696F73322E737265633E
S10F00003400800004A480103A68001052
S113002004FCFFDE150000DE3A313100260100C079
S113003004FF7FEF150140DF1502C0DF150380DDEB
S11300403A3131001E0100C0060600004C0080C594
S1130050260100B0402400008C0080C5260100B0B9
S113006000200000170000DE170140DF1702C0DF88
S10F0070170380DD0404C0DE3A0880EFB2
S113020004FEFFDE150080DD1501C0DD34C8BF0526
S1130210041480B53703C0B53503C0B53400800578
S113022004C180B51700C0B54400C0BD4C00C0BDBA
S11302301500C0B5170080DD1701C0DD0402C0DE63
S11302403A2800F804FEFFDE150080DD1501C0DD4C
S113025034C8BF05040088B5350000B034008005FB
S113026004C180B51700C0B5260500B83400800568
S113027004C080B51700C0B54400C0BD1500C0B5AA
S1130280170080DD1701C0DD0402C0DE3A2800F843
S11302903400C106C4FFFFDE34C83F02040000423C
S11302A035000040802C0000C02E0000C400C005B2
S11302B0FA7001B84400C0053A7001B817C0400292
S11302C01500404206FD3F0034C87F05040048ADD8
S11302D01460B4032D0280AB143C82032D0380AB65
S11302E0C40180032D0180AB3A2800F834C8BF054F
S11302F0041480B5C403C0053502C0B53A2800F81B
S10B03000000000001000000F0
S90302906A
