S0190000616464726573735F6D61705F6E696F73322E737265633E
S113000004F5FFDE150080DD1501C0DD150280D882
S11300101503C0D8150400D9150540D9150680DA92
S11300201507C0DA150800DB150940DB150AC0DF27
S113003034C8BF05041480B53703C0B53503C0B553
S113004034008005046F80B51700C0B54400C0BDFE
S11300504C00C0BD1500C0B51E3200B83400800588
S1130060042B80B51700C0B53A8809B804FA4001DA
S1130070000A00003A8815183A880910041940014A
S1130080000A00003A8817183A88091084024001CF
S1130090000A00003A8819183A881B100608000064
S11300A03A8805200400C000060000003603401111
S11300B03AC845114400C01806FC3F003A2800F82D
S11300C03A8809003A880750001100003A960A2835
S11300D03AB048213A880758001100003A940A2897
S11300E03AB048213A880760001100003A920A2881
S11300F03AB048213A880768001100003AB0482114
S113010034C8BF05040880B5350000B106050000F9
S11301103400C0050470C0BD3A88EFB8070040B988
S11301203A2800F8170080DD1701C0DD170280D8D7
S11301301703C0D8170400D9170540D9170680DA69
S11301401707C0DA170800DB170940DB170AC0DFFE
S1130150040BC0DE3A2800F83400C106C4FFFFDEF9
S11301603500004000180000401A0000C400C0051B
S1130170FA7001B84400C0053A7001B806FF3F00A8
S113018034C87F05040048AD14A8A1032D0280AB38
S1130190540080032D0380ABC40180032D0180AB88
S11301A03A2800F834C8BF05041480B54400C005DB
S11301B03502C0B53A2800F8000000000100000034
S11301C03F065B4F666D7D077F67000004FEFFDE20
S11301D0150080DD1501C0DD34C8BF05040088B5F5
S11301E0350000B034008005046F80B51700C0B539
S11301F0260500B834008005046E80B51700C0B52C
S11302004400C0BD1500C0B5170080DD1701C0DD76
S10B02100402C0DE3A2800F8E4
S10F021834008000045680103A68001086
S113022404FCFFDE150000DE3A313100260100C073
S113023404FF7FEF150140DF1502C0DF150380DDE5
S11302443A3131001E0100C0060600004C0080C58E
S1130254260100B0C01C00008C0080C5260100B03B
S113026400000000170000DE170140DF1702C0DFA2
S10F0274170380DD0404C0DE3A0880EFAC
S9030158A3
